:020000040800F2
:1000000000000220DD01000835020008350200086A
:100010003502000835020008350200080000000023
:100020000000000000000000000000003502000891
:100030003502000800000000350200083502000803
:1000400035020008350200083502000835020008B4
:1000500035020008350200083502000835020008A4
:100060003502000835020008350200083502000894
:100070003502000835020008350200083502000884
:100080003502000835020008350200083502000874
:100090003502000835020008350200083502000864
:1000A0003502000835020008350200083502000854
:1000B0003502000835020008350200083502000844
:1000C0003502000835020008350200083502000834
:1000D0003502000835020008350200083502000824
:1000E0003502000835020008350200083502000814
:1000F0003502000835020008350200083502000804
:1001000035020008350200083502000835020008F3
:1001100035020008350200083502000835020008E3
:1001200035020008350200083502000835020008D3
:1001300035020008350200083502000835020008C3
:1001400035020008350200083502000835020008B3
:1001500035020008350200083502000835020008A3
:100160003502000835020008350200083502000893
:1001700035020008350200083502000800000000C2
:10018000350200083502000810B5054C237833B954
:10019000044B13B10448AFF300800123237010BD5A
:1001A0004802002000000000BC6A000808B5064BA9
:1001B0001BB106480649AFF300800648036813B137
:1001C000054B03B1984708BD00000000BC6A000859
:1001D0004C0200204402002000000000DFF83CD068
:1001E000002100F004B80E4B5B58435004310D4819
:1001F0000D4B42189A42FFF4F6AF0C4A00F003B8D8
:10020000002342F8043B0A4B9A42FFF4F9AF00F096
:10021000E3FF01F0A3FC01F0CBFA704700000220DD
:10022000C06A00088801002048020020480200201F
:1002300058040020FFF7FEBF08B572B6962000F004
:10024000D1F8962000F0CEF8F8E700000FB407B51B
:10025000054B04AA1B6852F8041BD868019202F0EF
:10026000F1F8012001F0CAFAFC010020074C08B5A2
:1002700023680546986801F083FB2368D86801F07D
:100280007FFB05B9FEE7FFF7D7FFFBE7FC01002086
:1002900070B50E460446154600F0E4FF013610D056
:1002A00063680DB1E26800E022699BB2204601213B
:1002B000138000F0F3FF20460021BDE8704000F0FD
:1002C000E9BF70BD0022FFF7E3BF000010B5044690
:1002D000013001D110BD0C31B1F900305A1C0BD0E6
:1002E000A342F8D12046896801F04AF8204600214F
:1002F000BDE8104001F068B80248BDE81040FFF7C3
:10030000A5BF00BFFC650008884208B50AD0431CA1
:1003100007D0013106D00448FFF798FF4FF0FF30B7
:1003200008BD084608BD00BF0D660008B1F90030E1
:100330005A1C05D0834201D1486870470C31F5E75B
:1003400018467047421C10B5044607D0FFF7EEFF71
:10035000431C044602D10248FFF778FF204610BD37
:100360001E66000838B501F033F90F4C23681BB93D
:10037000BDE8384001F022B91D6801F007F9281ADC
:10038000002809DC2268D3682360084B1B68002B17
:10039000EBD090689847E8E72368D3E90001BDE80F
:1003A000384001F001B900BF64020020680200205B
:1003B00038B5044601F0EAF8054601F0E7F8401BBD
:1003C000A042FAD338BD000007EE100ADFED047A30
:1003D00067EE277AFDEEE77A17EE900AFFF7E8BF9F
:1003E000002474494FF47A735843FFF7E1BF704714
:1003F00008B50B4B1A6842F400721A601A6842F48E
:1004000080621A601A6842F480721A60032000F059
:1004100017F80F2000F0C8FDFFF7E9FF002008BD26
:10042000003C0240024B1A6801321A60704700BF5C
:100430006C020020014B1868704700BF6C0200205E
:10044000074AD36823F4E0631B041B0C43F0BF632B
:1004500043F4003300F0070043EA0023D360704701
:1004600000ED00E02DE9F0430F68002301229A40DF
:1004700002EA0705954240F0D0804C6824F010064F
:10048000022E16D14FEAD30C00EB8C0C03F00708B8
:10049000DCF820204FEA88084FF00F0909FA08F924
:1004A00022EA09090A6902FA08F849EA0802CCF8BE
:1004B00020205A004FF0030CD0F800900CFA02FCF8
:1004C0006FEA0C0C04F003080CEA090908FA02F8B8
:1004D000013E49EA0808012EC0F8008010D886685D
:1004E0000CEA0608CE68964048EA0606866046682A
:1004F00026EA0508C4F300169E4048EA0606466050
:10050000C6680CEA060C8E6896404CEA0602C26089
:10051000E20040F18280444A566C46F480465664BC
:1005200023F0030606F1804606F59C3603F0030C23
:10053000B2684FEA8C0C4FF00F0808FA0CF822EA68
:1005400008083A4A904226D002F58062904224D0B0
:1005500002F58062904222D002F58062904220D063
:1005600002F5806290421ED002F5806290421CD05B
:1005700002F5806290421AD002F58062904218D053
:1005800002F58062904216D002F58062904214BF5C
:100590000A22092210E000220EE001220CE00222D1
:1005A0000AE0032208E0042206E0052204E0062215
:1005B00002E0072200E0082202FA0CF242EA0802F6
:1005C000B2601B4ED6F800C0EA4314F4803F14BF5B
:1005D00045EA0C0C02EA0C0CC6F800C0766814F46C
:1005E000003F14BF45EA060C02EA060C104EC6F89E
:1005F00004C0D6F808C014F4801F14BF45EA0C0CE0
:1006000002EA0C0CC6F808C0F668A40258BF02EA59
:100610000605074A48BF3543D5600133102B7FF4E8
:1006200025AFBDE8F08300BF003802400000024063
:10063000003C0140036870B5DE07044603D423681C
:100640009D074AD48DE0814B9A6802F00C02042A7F
:1006500007D09A6802F00C02082A0BD15B68580296
:1006600008D57A4B1B689903E9D56368012BE6D05E
:10067000012070BD764D00232B70FFF7DBFE064690
:10068000724B1B689A0307D5FFF7D4FE801BB0F5A9
:10069000FA7FF5D9032070BD23792B706368012B95
:1006A0000DD1FFF7C7FE0546684B1B689B03C6D4F8
:1006B000FFF7C0FE401BB0F5FA7FF5D9EAE7FFF778
:1006C000B9FE0546614B1B689E03B8D5FFF7B2FE25
:1006D000401BB0F5FA7FF5D9DCE75C4B9A6812F065
:1006E0000C0F07D09A6802F00C02082A0AD15B6846
:1006F000580207D4554B1A68910715D5E268012AAC
:10070000B6D111E0E268534BEAB101221A60FFF75B
:1007100091FE05464D4B1A68920705D4FFF78AFEF5
:10072000401B6428F6D9B5E71A68F82191FAA1F1BF
:10073000B1FA81F12369C9B222F0F8028B40134368
:10074000424A13600DE01A60FFF774FE05463F4B06
:100750001B689B0705D5FFF76DFE401B6428F6D983
:1007600098E723681E0703D423685D0748D51FE078
:100770006269394B72B101221A60FFF75BFE0546D0
:10078000324B5B6F9807EFD4FFF754FE401B642891
:10079000F6D97FE71A60FFF74DFE05462B4B5B6FDE
:1007A0009907E1D5FFF746FE401B6428F6D971E7AB
:1007B000264B1A6C42F080521A64A3F5E4331A688F
:1007C00042F480721A60FFF735FE0546234B1B6822
:1007D000DA0518D5224D00232B70FFF72BFE0646B5
:1007E0001A4B1B6F9B0714D4237A2B70A368012B21
:1007F0001DD1FFF71FFE0546144B1B6F9E070FD53B
:10080000A3697BBB75E0FFF715FE401B6428DDD9AB
:1008100040E7FFF70FFE801BB0F5167FE0D939E700
:10082000FFF708FE401BB0F5167FE5D932E7FFF76A
:1008300001FE0546054B1B6F9807E1D5FFF7FAFD52
:10084000401BB0F5167FF5D924E700BF0038024001
:100850000238024000004742800E474200700040CC
:1008600070380240304A926802F00C02082A3FF4C5
:10087000FFAE2E4D022B4FF000032B6047D1FFF748
:10088000D9FD0646284B1B68990134D447F6C0733E
:1008900093FAA3F3B3FA83F34FF4403696FAA6F62D
:1008A000B6FA86F64FF0706090FAA0F0B0FA80F0D9
:1008B000216AE2690A43D9B2636A42F000528B406E
:1008C0001A43A36A5B08013BF6B203FA06F642EA52
:1008D0000603E26AC0B202FA00F0134A034353600F
:1008E00001232B60FFF7A6FD04460F4B1B689A01FE
:1008F00007D5002070BDFFF79DFD801B6428C1D97E
:10090000C8E6FFF797FD001B6428EED9C2E6FFF7A3
:1009100091FD0446044B1B689B01EAD5FFF78AFD55
:10092000001B6428F6D9B5E6003802406000474253
:100930006E4B1A6802F00F02914270B504460D46E4
:1009400068D9CAB21A701B6803F00F038B4201D03A
:10095000012070BD03689E0706D5654AA1689068AE
:1009600020F0F00001439160DD070BD423685807A5
:1009700040F1AD805E4AE168906820F4E0500143A8
:100980009160A4E062685A4B012A196802D111F4FF
:10099000003F06E0022A02D111F0007F01E011F0D1
:1009A000020FD5D0996821F003010A439A60FFF73E
:1009B00041FD6368012B05460ED14D4B9B6803F04A
:1009C0000C03042BD2D0FFF735FD41F28833401BD6
:1009D0009842F2D9032070BD022B0CD0444B9B6887
:1009E00013F00C0F0ED1C1E7FFF724FD41F288335D
:1009F000401B9842EED83E4B9B6803F00C03082B3B
:100A0000F2D1B3E7FFF716FD41F28833401B98425D
:100A1000E4D9DFE70368990706D5354AA1689068ED
:100A200020F0F00001439160DA0708D42F4BEAB2BE
:100A30001A701B6803F00F03AB4289D196E7626816
:100A40002B4B012A196802D111F4003F06E0022A5B
:100A500002D111F0007F01E011F0020F3FF478AFF6
:100A6000996821F003010A439A60FFF7E3FC636889
:100A7000012B06460DD11E4B9B6803F00C03042B83
:100A8000D4D0FFF7D7FC41F28833801B9842F2D9CB
:100A9000A0E7022B0CD0164B9B6813F00C0F0ED165
:100AA000C4E7FFF7C7FC41F28833801B984291D816
:100AB0000F4B9B6803F00C03082BF2D1B6E7FFF74E
:100AC000B9FC41F28833801B9842E4D982E71B07C6
:100AD00007D5074B21699A6822F4604242EAC102B5
:100AE0009A600F2000F060FA002070BD003C0240C8
:100AF0000038024026498B6803F00C03042B10B524
:100B000044D0082B01D0234810BD4C684A6804F03B
:100B10003F044FF4800393FAA3F3B3FA83F302F490
:100B20008002DBB232FA03F3194A47F6C0730ED0E3
:100B3000516893FAA3F3B3FA83F347F6C072DBB2BA
:100B40000A40DA40144BB3FBF4F353430DE0526810
:100B500093FAA3F0B0FA80F047F6C073C0B2134026
:100B6000C3400C48B0FBF4F46343094A50684FF4A7
:100B7000403292FAA2F2B2FA82F2D2B200F44030DB
:100B8000D04001304000B3FBF0F010BD024810BD72
:100B9000003802400024F40000127A0008B5FFF784
:100BA000A9FF094B9A68F02393FAA3F3B3FA83F3EE
:100BB00002F0F002DBB222FA03F3044AD35CD8401D
:100BC000034B186008BD00BF003802403E660008B5
:100BD0008801002008B5FFF7E1FF084B9A684FF441
:100BE000E05393FAA3F3B3FA83F302F4E052DBB2D7
:100BF00022FA03F3024AD35CD84008BD0038024011
:100C00003E66000808B5FFF7C9FF084B9A684FF425
:100C1000604393FAA3F3B3FA83F302F46042DBB2C6
:100C200022FA03F3024AD35CD84008BD00380240E0
:100C30003E660008704700002E4A0368904212D0BA
:100C4000B0F1804F0FD0A2F57C4290420BD002F55C
:100C50008062904207D002F58062904203D002F594
:100C60007842904218D14A6823F070031343214A16
:100C7000904237D0B0F1804F34D01F4A904231D0EB
:100C800002F5806290422DD002F58062904229D018
:100C900002F57842904225D0184A904222D002F5BF
:100CA000806290421ED002F5806290421AD0A2F576
:100CB0009832904216D002F58062904212D002F52E
:100CC000806290420ED003608B68C3620B688362BF
:100CD000084B98420BD003F58063984207D001235C
:100CE00043617047CA6823F440731343EBE70B6911
:100CF0000363F4E7000001400004004000400140AD
:100D000010B5044680B190F839300BB9FFF792FF67
:100D1000022384F839302068211DFFF78DFF01235D
:100D200084F83930002010BD012010BD10B501231A
:100D3000046A8B4024EA03030362036A8A40134374
:100D4000036210BD10B5044601220068FFF7EEFFF4
:100D50002368084A934203D002F58062934203D18C
:100D60005A6C42F400425A641A6842F001021A6056
:100D7000002010BD000001402DE9F8430568C3685C
:100D80002A69044622F44052A1681343C2690069EB
:100D90002B61EB680843616923F416430143114357
:100DA00023F00C030B43EB606969A36921F44071E4
:100DB0000B43B2F5004F6B61404B36D19D4203D0DF
:100DC00003F580639D4216D1FFF71CFF6368192766
:100DD00078435B00B0FBF3F8FFF714FF6368642609
:100DE000B8FBF6F878435B004FEA0818B0FBF3F95C
:100DF000FFF708FF15E0FFF7EDFE636819275B00BA
:100E00007843B0FBF3F8FFF7E5FE63686426B8FBB0
:100E1000F6F878435B004FEA0818B0FBF3F9FFF7E8
:100E2000D9FE636878435B0034E09D4202D0244BD6
:100E30009D4216D1FFF7E6FE6368192778439B00B1
:100E4000B0FBF3F8FFF7DEFE63686426B8FBF6F844
:100E500078439B004FEA0818B0FBF3F9FFF7D2FE86
:100E600015E0FFF7B7FE636819279B007843B0FBD6
:100E7000F3F8FFF7AFFE63686426B8FBF6F8784333
:100E80009B004FEA0818B0FBF3F9FFF7A3FE636875
:100E900078439B00B0FBF3F7B7FBF6F706FB179917
:100EA0004FEA091909F13209B9FBF6F606F00F0607
:100EB00046EA0806AE60BDE8F88300BF00100140B6
:100EC00000140140704710B5044618B390F839304B
:100ED0000BB9FFF7F7FF022384F839302368DA688B
:100EE00022F40052DA602046FFF746FF23681A69B1
:100EF00022F490421A615A6922F02A025A61DA6891
:100F000042F40052DA600020012384F83A0084F8A9
:100F1000393010BD012010BD0C4A10B5946892689C
:100F2000B2F1006F23460DD1094B04F16042043247
:100F3000D25843F8042F074A9342F6D1034A4FF0A0
:100F400000539360103043F8201010BD00ED00E016
:100F5000FCFFFF1F84010020114A38B51368D968CF
:100F600011F0020F144604D06FF002021A61FFF76D
:100F7000F9F92368DA68520711D56FF00402094DB8
:100F80001A615C6A2B68E31AB3F57A7F07D3FFF71F
:100F900049FA034B2C601B6804F57A729A6338BDDA
:100FA000740200207002002038B5224B224C1A6CCB
:100FB000214842F008021A641A6A42F008021A62D2
:100FC0001A6A22F008021A62A3F50B3323604FF06D
:100FD000FF33E360194B1A4A1B6893421BBF194A3F
:100FE000B3FBF2F30F2303F1FF33002563602561A8
:100FF000A5606561FFF784FE32201349FFF78CFF7F
:10100000124B0D484FF480225A602946FFF79AFE92
:1010100004210948FFF796FE23680D495A6A0A60C1
:1010200002F57A729A63DA6842F00402DA602846BE
:1010300038BD00BF00380240740200208801002043
:101040000024F40080841E00590F000800E100E035
:1010500070020020174A184B916801F00C01042916
:1010600003D0082903D0154A18E0154A16E0506845
:10107000516810F4800F506814BF114A0F4A01F0F4
:101080003F01B2FBF1F20B494968C1F30141C0F3E2
:101090008810013142434900B2FBF1F21A60054A5F
:1010A00008499268C2F30312895C1A68CA401A6040
:1010B000704700BF00380240880100200024F4007F
:1010C00000127A004E6600081D4B1A6C42F08052E6
:1010D00030B51A64A3F5E43393B01A6822F44042A1
:1010E00042F400421A600123069300B105230793DE
:1010F0004FF480030D9308230E934FF4A87302243A
:1011000000250F9306A8072309950C9410941193BA
:10111000FFF790FA88B90F2301934FF4A05303907F
:10112000049301A84FF48053052105930294FFF71F
:10113000FFFB431B5842584100E0284613B030BD26
:10114000003802401C4B1A6C42F0805230B51A64D1
:10115000A3F5E43393B01A6822F4404242F400420B
:101160001A60032306930123099310230A930E9315
:101170004FF4A873002402250F9306A807230794B1
:101180000C950D9410951193FFF754FA88B90F231D
:1011900001934FF4A0530390049301A84FF480539C
:1011A000052105930295FFF7C3FB031B58425841E5
:1011B00000E0204613B030BD0038024008B50120E1
:1011C000FFF782FF30B9FFF77FFF18B9FFF7BAFFCB
:1011D00000B9FEE708BD0000184BD3F8882010B511
:1011E00042F47002164CC3F888202268002142F0B5
:1011F00001022260A160226822F0847222F480320F
:101200002260104A6260226822F4802222604FF03D
:101210000062E1609A600C4B0C4A1A60FFF7E8F834
:10122000FFF7CCFFFFF716FF236A43F008032362A2
:10123000236A23F00803236210BD00BF00ED00E025
:101240000038024010300024880100200024F400FF
:1012500010B50021044604F00F0400F091F80120BD
:10126000A04010BD70B504464B1C0D46218010D027
:10127000C1F3031000F020F806462846FFF7E8FF08
:1012800006F11003A36006F118031A366060E360EC
:10129000266170BDB0F9000000F096B80129B0F9E0
:1012A000000018BF002100F06BB808B5FFF7D2FEB0
:1012B000BDE80840FFF79CB808B5082845D8DFE826
:1012C00000F0050C131A21282F363D00214B22482F
:1012D0001A6B42F001021A6308BD1E4B1F481A6BBD
:1012E00042F002021A6308BD1A4B1D481A6B42F005
:1012F00004021A6308BD174B1A481A6B42F0080221
:101300001A6308BD134B18481A6B42F010021A6397
:1013100008BD104B15481A6B42F020021A6308BD35
:101320000C4B13481A6B42F040021A6308BD094B7C
:1013300010481A6B42F080021A6308BD054B0E4834
:101340001A6B42F480721A6308BD0C48FEF77EFFE8
:10135000002008BD003802400000024000040240A6
:1013600000080240000C024000100240001402403D
:1013700000180240001C024000200240F0660008F5
:1013800030B5054687B0C0F303100C4605F00F05D5
:10139000FFF792FF012304F00F0203FA05F5094B52
:1013A000019553F822300293C4F302130393C4F35C
:1013B000C314032301A904930594FFF753F807B05E
:1013C00030BD00BF1467000838B500F00F05C0F34A
:1013D00003100C46FFF770FF6B00C16803229A40B0
:1013E00021EA0202C260032CC26828BF002404FA6A
:1013F00003F31343C36038BD084B02681A60826868
:101400005A60C2689A600269DA6042691A61002211
:101410009A6118460C225A61FFF755BDB4020020AC
:10142000F8B504460E46084631491546FEF78AFFD0
:10143000304907462846FEF785FF01463846FEF745
:1014400063FF2D4B2060984207D103F594335A6C0B
:1014500042F010025A64002314E0284B984207D14E
:1014600003F5FA331A6C42F400321A64012309E0DE
:10147000234B984207D103F592335A6C42F0200275
:101480005A640223636030461949FEF71FFF28465D
:101490001849FEF71BFF721C03D030460121FFF7ED
:1014A00093FF6B1C03D028460121FFF78DFF4FF4FB
:1014B0001653A3600023E360236163612683658381
:1014C0002046FFF799FF23680C4A93420FD10D4B3A
:1014D00001221A600C4B04F11805206861681A4655
:1014E00003C20834AC421346F7D120681060F8BD3F
:1014F000A866000860660008001001400044004033
:1015000000140140B0020020F00200200368034AEA
:1015100018681360C0F34010704700BFB402002089
:1015200038B5056804462046FFF7F0FF0028FAD0DA
:101530006868C0F3080038BD0368034A1868136080
:10154000C0F3C010704700BFB402002070B505683A
:1015500004460E462046FFF7EFFF0028FAD0C6F3F8
:1015600008066E6070BD0000054B186830B9012296
:101570001A60044B044A1A60FFF716BD704700BF9B
:10158000480300200C030020000C004008B5044B69
:101590001B680BB9FFF7E8FF024B586A08BD00BF94
:1015A00048030020000C0040034B1B685863DA68B6
:1015B00042F00202DA6070470C030020034B1B6804
:1015C000DA6822F00202DA60704700BF0C030020E4
:1015D000024B1B686FF002021A6170470C03002077
:1015E00008B5012000F002F8002008BD10B504463F
:1015F00086B008B1154B00E0154B1968154B16481D
:101600001A6800F0FBFB9FED157A002CF7EE007ACC
:101610004FF0000101A84FF0140214BF17EE904ADA
:1016200017EE104A00F049FB01A83D21FEF74AFEE3
:10163000039B1A68029B1A429BB201D1049A00E0F4
:10164000059A13802046FEF7BFFEF1E78C010020CB
:10165000900100209401002075670008CDCCCC3D9E
:10166000044B1B6823B9044802210322FFF7D8BEAC
:10167000704700BFB0020020F0020020022808B529
:101680004FF000030ADDC11E074A52F8210042F85C
:10169000213028B103685B68984708BD184608BD2B
:1016A0004FF0FF3008BD00BF4C030020022870B58A
:1016B0000C4615460FDC0E4B1B680BB9FFF7D0FF2D
:1016C0006619B44205D00B4814F8011BFFF73EFF22
:1016D000F7E7284670BD0338074B53F8200018B1D0
:1016E00003681B68984770BD4FF0FF3070BD00BFA6
:1016F000B0020020F00200204C030020022810B5A8
:101700000C460ADC0B4B1B680BB9FFF7A9FF0A4814
:10171000FFF706FF2070012010BD0338074B53F878
:10172000200018B103689B68984710BD4FF0FF3048
:1017300010BD00BFB0020020F00200204C030020CA
:10174000022808B508DD0338064B53F8200028B1FD
:101750000368DB68984708BD012008BD4FF0FF30E3
:1017600008BD00BF4C030020022808B508DD03387F
:10177000064B53F8200028B103681B69984708BD41
:10178000002008BD4FF0FF3008BD00BF4C03002013
:10179000022808B504D84FF400534B60002008BD60
:1017A00000F026F8092303604FF0FF3008BD7047B2
:1017B00008B5FFF77AFDFFF7FAFFBDE80840FFF72D
:1017C0000FBF0000084B1B681844EFF308829042DB
:1017D00005D3064B0C221A604FF0FF307047024AC7
:1017E00010601846704700BF980100205404002084
:1017F000014B1868704700BFFC01002008B5074B7B
:10180000044613B10021AFF30080054B1868836ACA
:1018100003B198472046FEF729FD00BF00000000F5
:101820000C6800088A892DE9F041054610070C462E
:1018300057D44B68002B02DC0B6C002B18DDE66ADA
:10184000B6B102F48052002392B22F682B600AB125
:10185000626D10E0216A28460123B047411C024610
:1018600009D12B683BB11D2B01D0162B46D12F601F
:101870000020BDE8F081A3895B0705D56368D21A13
:10188000636B0BB1236CD21AE66A216A28460023E7
:10189000B047461CA28905D12B681BB11D2B01D076
:1018A000162B19D100236360D1042369236004D56A
:1018B000421C01D12B6803B96065616B2F60002960
:1018C000D6D004F14403994202D0284600F0FEF934
:1018D00000206063BDE8F08142F04002A281BDE8D3
:1018E000F0810E69002EC3D00B680E60C6EB0308B2
:1018F00093070CBF4B6900238B6012E0A38943F070
:101900004003A3814FF0FF30BDE8F081A76A216A50
:10191000284632464346B8470028EFDD0644C0EB70
:101920000808B8F1000FF1DCA2E7000038B50B6938
:1019300005460C46DBB118B183690BB900F086F897
:101940000C4B9C4201D16C6808E00B4B9C4201D1CE
:10195000AC6803E0094B9C4208BFEC68B4F90C305A
:101960002BB128462146BDE83840FFF75BBF002079
:1019700038BD00BFA8670008C8670008E86700080E
:10198000014620B9044B0549186800F0C9B8044B5A
:101990001868FFF7CBBF00BF0C6800082D190008BE
:1019A000FC010020F8B5074600F1480494B1A56891
:1019B0006668013E0CD4AB89012B07D9B5F90E300E
:1019C000013303D038462946FFF7B0FF6835F0E70A
:1019D0002468EBE7F8BD0000002310B5044603605F
:1019E0004360836081814366C28103614361836197
:1019F00019465C30082200F060F9054B6362054B24
:101A0000A362054BE362054B2462236310BD00BF54
:101A1000951E0008B71E0008EF1E0008131F0008DF
:101A200070B54B1E68255D430E4605F1740100F04C
:101A300091F9044640B1002180E842000C30A060DA
:101A400005F1680200F039F9204670BD836910B5D0
:101A5000044633BB8364C3640365124B124A1B689C
:101A60008262984204BF0123836100F01FF8606026
:101A7000204600F01BF8A060204600F017F8042173
:101A8000E06000226068FFF7A7FFA068092101223B
:101A9000FFF7A2FFE06812210222FFF79DFF01235A
:101AA000A36110BD0C680008A5190008F8B51B4B10
:101AB0001E68B369074613B93046FFF7C7FF4836BB
:101AC000B4687368013B04D4B4F90C5075B1683440
:101AD000F8E733682BB938460421FFF7A1FF3060DF
:101AE00008B13668ECE70C233B60F8BD4FF6FF7396
:101AF000E3810123A38165662560A560656025619A
:101B00006561A56104F15C002946082200F0D5F862
:101B10006563A563A564E5642046F8BD0C6800080C
:101B20002DE9F8438046894600F14804002694B127
:101B3000A5686768013F0CD4AB89012B07D9B5F9BB
:101B40000E30013303D040462946C8470643683566
:101B5000F0E72468EBE73046BDE8F88370B50E4B3C
:101B60000E4DED1AAD1000241E46AC4204D056F8BE
:101B7000242090470134F8E704F034FD084D094B68
:101B8000ED1AAD1000241E46AC4204D056F82420B5
:101B900090470134F8E770BD3C0200203C02002071
:101BA000400200203C020020F0B58B899E0791B0D6
:101BB00005460C4626D4B1F90E10002909DAA3898E
:101BC00013F0800F4FF0000714BF40264FF48066DB
:101BD0000DE001AA02F084F90028F0DB029F07F46F
:101BE0007047B7F500514F424F414FF48066284689
:101BF000314600F0AFF860B9A3899A051DD443F0CF
:101C00000203A38104F1470323602361012363617D
:101C100013E00B4BAB62A389206043F08003A381E8
:101C2000206166614FB12846B4F90E1002F06AF9DE
:101C300018B1A38943F00103A38111B0F0BD00BF27
:101C4000A5190008024B0146186800F083B800BFD0
:101C5000FC01002010B5C9B202449042034606D0F0
:101C60001C788C4200F10100F7D1184610BD00200D
:101C700010BD10B50023934203D0CC5CC454013393
:101C8000F9E710BD814270B501D300230EE08C1836
:101C9000A042FAD28518134613F1FF3305D35142FF
:101CA00066182944F65CCE54F6E770BD934203D023
:101CB000CC5CC4540133F9E770BD0244034693423F
:101CC00002D003F8011BFAE77047000030B5002985
:101CD0003CD051F8042C0B1F1D49002AB8BF9B189B
:101CE0000A680C4612B95A600B6030BD93420DD29F
:101CF00019685818904203D15A5811444268196023
:101D00005A60236030BD994203D80A4651680029C1
:101D1000F9D1146815199D420AD11B682344D018C3
:101D20008842136012D10868034413604B680CE0CA
:101D300002D90C23036030BD18681C188C4203D1F3
:101D40000C684968204418605960536030BD00BF7A
:101D50005004002070B5CD1C25F0030508350C2D6E
:101D600038BF0C25002D06463FDB8D423DD3214B6D
:101D70001C6818462146A1B10B685B1B0ED40B2BC7
:101D800003D90B60CC18CD501FE08C4202D16268A1
:101D900002601AE04B6863600C4616E00C46496826
:101DA000E9E7154C23681BB9304600F03FF8206086
:101DB0002946304600F03AF8431C014615D0C41CB1
:101DC00024F0030484420AD1256004F10B00231D92
:101DD00020F00700C31A0BD05A42E25070BD3046C3
:101DE000611A00F023F80130EED10C23336000209B
:101DF00070BD00BF500400204C0400200FB40A4BFB
:101E000013B51C6824B1A36913B92046FFF71EFE61
:101E100005AB2046A168049A019300F00FFA02B0C6
:101E2000BDE8104004B07047FC01002038B5064CF6
:101E30000023054608462360FFF7C4FC431C02D17B
:101E4000236803B12B6038BD540400200EB400B5E4
:101E50009CB04FF40271ADF814106FF00041049182
:101E600007914FF6FF711DABADF81610084953F8F6
:101E7000042B029006900868019302A900F0C8F8AC
:101E8000029B00221A701CB05DF804EB03B070478F
:101E9000FC01002010B50C46B1F90E1002F088FCD0
:101EA000002803DB636D0344636510BDA38923F43D
:101EB0008053A38110BD2DE9F0411D468B89DB05C0
:101EC00007460C46164605D5B1F90E10002202232E
:101ED00002F02CF8A389B4F90E1023F48053A381E7
:101EE000384632462B46BDE8F04101F021B910B525
:101EF0000C46B1F90E1002F019F8431CA38903D166
:101F000023F48053A38110BD43F48053A381606503
:101F100010BDB1F90E1001F08BB9034613F8012B77
:101F2000002AFBD1181A0138704770B592B10B46E0
:101F300005461C7810F8016BB44201F1010101D192
:101F4000012A03D128781B78C01A70BD013A002CF1
:101F5000EDD1F7E7104670BD2DE9F0478D68AB4233
:101F600081460C4692461F4643D38B8913F4906FEB
:101F70003DD026680969C1EB06086669022206EBB6
:101F8000460696FBF2F608F101023A44964238BF43
:101F900016465B050FD53146FFF7DCFE054698B1C6
:101FA00021694246FFF765FEA38923F4906343F05D
:101FB0008003A38113E0324602F0D3FB054670B9DB
:101FC00048462169FFF782FE0C23C9F80030A38937
:101FD00043F04003A3814FF0FF30BDE8F087256157
:101FE00066614544C8EB06062560A6603D46AF42E3
:101FF00000D23D462A4620685146FFF743FEA368BB
:102000005B1BA36023681D4425600020BDE8F087AA
:102010002DE9F0439DB0074603938B891C060D46BE
:1020200016460CD50B6953B94021FFF793FE286083
:10203000286110B90C233B60C8E040236B6100238A
:10204000099320238DF8293030238DF82A30334628
:102050001C4613F8012B1AB9B4EB06090FD002E0A5
:10206000252AF5D1F8E73846294632464B46FFF790
:1020700073FF013000F0A580099B4B44099323783E
:10208000002B00F09E8000234FF0FF320493079353
:10209000059206938DF853301A9304F101094C46CA
:1020A0004D4E217830460522FFF7D4FD09F1010994
:1020B000049B28B1861B0120B04003430493EEE744
:1020C000D90644BF20228DF853201A0744BF2B2283
:1020D0008DF8532022782A2A02D0079B21460EE051
:1020E000039A111D12680391002A01DB079204E094
:1020F000524243F002030792049301340AE00C4673
:1021000001312278303A092A03D80A2000FB032340
:10211000F5E7079323782E2B1AD163782A2B0AD15F
:10212000039B1A1D1B680392002B04F10204B8BF25
:102130004FF0FF330BE0611C00230C460131227885
:10214000303A092A03D80A2000FB0323F5E7059358
:10215000224E217830460322FFF77CFD30B1861BEA
:10216000049B4020B04003430493013421781C4871
:102170008DF828100622661CFFF76CFD88B1194BFC
:1021800033B9039B073323F007030833039314E0A9
:1021900003AB0093384604A92A46134B00F0F4F928
:1021A00007E003AB0093384604A92A460E4B00F023
:1021B0006BFCB0F1FF3F804603D0099B4344099379
:1021C00045E7AB895B0601D4099801E04FF0FF3089
:1021D0001DB0BDE8F08300BF106800081668000855
:1021E0001A68000889250008591F00089368013BF8
:1021F000002B10B5936005DA9469A34208DBCBB2DB
:102200000A2B05D01368581C10601970C8B210BD95
:10221000BDE8104000F038BFF8B505460E4614463C
:10222000D718BC4208D0284614F8011B3246FFF7E5
:10223000DDFF431CF5D100E00020F8BD2DE9F0439F
:102240009DB00D4617460393064618B183690BB936
:10225000FFF7FCFB734B9D4201D1756808E0724BA0
:102260009D4201D1B56803E0704B9D4208BFF568FF
:10227000AB8918070AD52B6943B1002309932023A2
:102280008DF8293030238DF82A3038E03046294641
:1022900000F060FF0028F0D04FF0FF30BFE0039A5D
:1022A000111D12680391002A70DB07920134237814
:1022B0002E2B7DD05E4F217838460322FFF7CAFCD3
:1022C00030B1C71B049B4020B84003430493013442
:1022D000217858488DF828100622671CFFF7BAFCB1
:1022E000002800F08A80544B002B7DD1039B0733DC
:1022F00023F0070308330393099B434409933B46A8
:102300001C4613F8012B1AB9B4EB07090ED002E0F2
:10231000252AF5D1F8E7304629463A464B46FFF7DD
:102320007BFF013076D0099B4B4409932378002B27
:1023300070D000234FF0FF32049307930592069369
:102340008DF853301A9304F101094C463B4F217824
:1023500038460522FFF77EFC09F10109049B28B1EC
:10236000C71B0120B84003430493EEE7D90644BFDE
:1023700020228DF853201A0744BF2B228DF85320BA
:1023800022782A2A8BD0079B214605E0524243F04F
:1023900002030792049389E70C4601312278303A10
:1023A000092A03D80A2000FB0323F5E707937EE7F9
:1023B00063782A2B0AD1039B1A1D1B680392002BFA
:1023C00004F10204B8BF4FF0FF330BE0611C00239F
:1023D0000C4601312278303A092A03D80A2000FB42
:1023E0000323F5E7059365E703AB0093304604A9A3
:1023F0002A46134B00F0C8F807E003AB00933046C1
:1024000004A92A460E4B00F03FFBB0F1FF3F804687
:102410007FF472AFAB895B063FF53EAF09981DB004
:10242000BDE8F083A8670008C8670008E8670008EF
:10243000166800081A680008892500081068000856
:102440001922000830B51346044A05460C461068A8
:1024500029462246BDE83040FFF7F0BEFC010020CF
:102460002DE9F04788B0002B14461D46109E1299A6
:10247000139F05DA05F100431D4614462D2300E0A5
:1024800000230B70149B23F0200ABAF1460F04D0EE
:10249000BAF1450F03D1013601E0032300E0022326
:1024A0008DE8C80006AB039307AB049322462B4686
:1024B00000F05EFFBAF1470F804602D1119BDB07A7
:1024C00025D5BAF1460F08EB06090FD198F8003070
:1024D000302B09D1204629460022002303F0B8FF03
:1024E00010B9C6F101063E603B6899442046294672
:1024F0000022002303F0ACFF08B1CDF81C90079B2D
:102500004B4504D25A1C079230221A70F7E7079BFA
:10251000C8EB0302159B40461A6008B0BDE8F0877F
:10252000034673B5002903F8022B03DA49421A4621
:102530002D2401E01A462B24092944701ADD0DF1DF
:1025400006040A2691FBF6F506FB15113031092D1C
:10255000234604F801192946F3DC05F1300103F89C
:10256000011D0DF107018B420AD213F8011B02F87D
:10257000011BF6E730241A46214402F8024B597039
:10258000101A02B070BD00002DE9F04F8FB00C465C
:1025900016461F46DDF86090054601F0C3FCD0F8F2
:1025A00000A05046FFF7B9FC00230C93D9F8003087
:1025B0000990073323F00703D3E9000103F1080270
:1025C00094F81880C9F80020C4E9120102F002F959
:1025D0000128D4E9120117D10022002303F042FFA1
:1025E00010B12D2384F84330904B914AB8F1470F36
:1025F0008CBF9146994603232361236823F004038B
:1026000023604FF0000B86E002F0E4F8236848B93D
:10261000884A8949B8F1470F8CBF89469146032201
:102620002261EBE76268511C28F0200B01D10622E1
:1026300004E0BBF1470F02D10AB901226260606871
:10264000CDF8108043F480618DE803000DF12B007C
:1026500002900BA803900CA8059000202160069022
:10266000D4E912232846FFF7FBFEBBF1470F814652
:102670000B9909D1C81C02DB6368994230DDA8F1CF
:1026800002085FFA88F802E0B8F1650F12D8013944
:10269000424604F150000B91FFF742FF0C9A831859
:1026A000012A8346236102DC2268D2072DD501333B
:1026B00023612AE0B8F1660F14D10029636807DDB1
:1026C000216113B92268D0071CD501330B4418E0EF
:1026D00013B92268D20701D5023312E0012310E0BA
:1026E0004FF067080C9A914205DB23682161D807F7
:1026F00008D54B1C05E00029D4BFC1F1020301231A
:1027000013442361A1654FF0000B9DF82B3013B1EA
:102710002D2384F843300097284621460DAA3346DE
:1027200000F040F9013002D14FF0FF3036E123686C
:102730005A0504D4284631464A46236908E1B8F1CF
:10274000650F40F2CB80D4E912010022002303F090
:102750007FFE00282AD028463146384A0123B84750
:102760000130E1D00C9B0B9A9A4207DB2368D80713
:1027700004D423689B0700F1F880FDE02846314629
:102780005246099BB8470130CED04FF000080C9B51
:10279000013B9845EDDA2846314604F11A0201233F
:1027A000B8470130C0D008F10108F0E70B9B002BBF
:1027B00028DC28463146214A0123B8470130B3D0EE
:1027C0000B9B23B90C9B13B92368D907D1D5284695
:1027D00031465246099BB8470130A5D04FF000085A
:1027E0000B9B5B4298452846314608DA04F11A02F1
:1027F0000123B847013097D008F10108F0E74A46B5
:102800000C9BA5E0A36D0C9A9A42B4BF93469B46DD
:10281000BBF1000F02DC4FF000081CE028463146F7
:102820004A465B46B8470130F5D17DE7216800088C
:1028300025680008296800082D680008316800082C
:102840002846314604F11A020123B84701303FF40B
:102850006BAF08F10108A36D2BEAEB729A1A904551
:10286000EEDB09EB03080B9A0C9B9A420FDB236803
:10287000DA070CD40C9B0B9A9944C8EB09099B1AF4
:102880009945A8BF9946B9F1000F08DC0FE028462A
:1028900031465246099BB8470130EBD144E7284600
:1028A000314642464B46B84701303FF43DAF4FF00A
:1028B00000080AE02846314604F11A020123B8470D
:1028C00001303FF431AF08F101080B9B0C9A29EA63
:1028D000E971D31A5B1A9845ECDB4AE70C9A012A96
:1028E00001DCDB0739D5284631464A460123B84783
:1028F00001303FF419AF284631465246099BB8478C
:1029000001303FF411AFD4E912010022002303F09B
:102910009FFD10B14FF0000811E00C9B2846314696
:1029200009F10102013B1CE02846314604F11A027C
:102930000123B84701303FF4F7AE08F101080C9BC2
:10294000013B9845F0DB2846314604F150025B46D6
:10295000B84701307FF40DAFE6E6284631464A46D7
:102960000123B8470130EED1DEE64FF00008E268FF
:102970000D9BD31A984505DBE0680D9B9842B8BFC4
:1029800018460BE02846314604F119020123B847E6
:1029900001303FF4C9AE08F10108E8E70FB0BDE827
:1029A000F08F00BF2DE9F84315461F468A680B6972
:1029B000DDF820809A42A8BF13462B6091F843208F
:1029C00006460C460AB101332B602368990602D5EE
:1029D0002B6802332B60236813F006091DD094F88E
:1029E00043302268003318BF012392061FD5E11837
:1029F0005A1C302081F84300224494F8451082F894
:102A00004310023313E03046394604F11902012322
:102A1000C047013007D009F10109E2682B68D31AD9
:102A20009945F0DBDBE74FF0FF30BDE8F883304637
:102A3000394604F14302C0470130F4D023682A68C4
:102A4000E16803F00603042B08BFC2EB010523690C
:102A5000A2680CBF25EAE57500259A42C4BFC3EB06
:102A60000203ED184FF00009A9450ADA304639464D
:102A700004F11A020123C0470130D4D009F1010941
:102A8000F2E70020BDE8F8832DE9FF470E7E0C9D9C
:102A90006E2E80460C4691469A4601F1430000F0A6
:102AA000A58011D8632E22D009D8002E00F0AF8067
:102AB000582E40F0BF8081F845607B4A4FE0642E7D
:102AC0001ED0692E1CD0B5E0732E00F0A48009D86A
:102AD0006F2E2BD0702E40F0AD800B6843F020039A
:102AE0000B6038E0752E21D0782E34D0A2E02B6810
:102AF0001A1D1B682A6001F1420781F842309DE0EF
:102B000022682B6812F0800F03D01A1D2A601D68FE
:102B100005E05106F9D51A1D2A60B3F90050002DC1
:102B200039DA2D236D4284F8433034E022682B6873
:102B300012F0800F03D01A1D2A601D6804E05206AF
:102B4000F9D51A1D2A601D88237E574A6F2B14BFA2
:102B50000A2308231BE07823544A84F8453023686D
:102B6000296813F0800F01F104062E6001D00D6872
:102B700002E05F06FBD50D88DE0744BF43F020036B
:102B800023601DB9236823F0200323601023002154
:102B900084F8431001E0444A0A236668A660002EC8
:102BA00003DB216821F00401216005B96EB104F155
:102BB0004201B5FBF3F603FB16550F46555D01F8D0
:102BC00001593546002EF4D100E00746082B0AD102
:102BD0002368DD0707D5626823699A4203DC302346
:102BE00007F8013C013FC01B20612CE009682B68FD
:102BF000626911F0800F04D0191D29601B681A60EA
:102C000005E04906F8D5191D29601B681A800023C4
:102C10002361074617E02B681A1D2A601F68384693
:102C2000FFF77BF963682061984288BF23612369BD
:102C3000636005E004F1420784F8426001232361E8
:102C4000002384F84330CDF800A04046214603AA73
:102C50004B46FFF7A7FE013002D14FF0FF301FE0D7
:102C6000404649463A462369D0470130F5D02368AB
:102C70009B0705D4E068039B9842B8BF18460FE055
:102C80000025E268039BD31A9D42F3DA4046494689
:102C900004F119020123D0470130DED00135F0E7FD
:102CA00004B0BDE8F08700BF33680008446800083E
:102CB0002DE9F04F164687B08A680293531EB3F58C
:102CC000AE7F07460C4606D96FF4AE731A4440F245
:102CD0005D138B6000E000222368A04643F4F0639C
:102CE00048F81C3B4FF0000B4546DA46CDF814B0CF
:102CF000CDF810B0D946CDF80CB0A168002900F08D
:102D0000E98033681B78492B75D016D8392B0DD83C
:102D1000312B3ED22D2B45D002D82B2B42D0D9E0DF
:102D20002E2B00F09780302B23D0D3E0452B00F0E2
:102D30009A80462B7CD0412B0CE0652B00F09380D1
:102D40000AD8542B7AD002D84E2B33D0C2E0592B5C
:102D50007AD0612B49D0BDE06E2B2BD004D8662BE6
:102D600066D0692B47D0B5E0742B67D0792B6BD038
:102D7000B0E0206810F4807F0BD020F0800020604D
:102D800009F10109002A00F08C800131013AA160AB
:102D900087E00AEB0B01002940F09C80216821F4B8
:102DA000C07105E02168080640F1948021F080019F
:102DB000216074E0BAF1000F0ED1B9F1000F0ED10D
:102DC000216801F4E060B0F5E06F08D121F4F06112
:102DD00021604FF0010A62E0BAF1020F5DD0BBF151
:102DE000010F20D0BBF1040F1CE0BAF1010F71D12B
:102DF0004FF0020A53E0BBF1000F0ED1B9F1000F02
:102E00006BD1216801F4E060B0F5E06F69D121F485
:102E1000F06121604FF0010B41E0BBF1030F02D0E4
:102E2000BBF1050F56D10BF1010B5FFA8BFB36E0BE
:102E3000BBF1020F4ED14FF0030B30E0BBF1060F98
:102E400048D14FF0070B2AE0BBF1070F42D14FF0FA
:102E5000080B24E0216888053CD521F4207121600D
:102E6000CDF80C901BE0216801F4A060B0F5806FF4
:102E700004D048052ED5B9F1000F32D0880504D40E
:102E800003980595C0EB0900049021F4F06141F42A
:102E9000C07121604FF0000901E04FF0030A2B7070
:102EA0000135A368013BA360236901332361736883
:102EB000013B002B736003DD3368013333601CE793
:102EC0000192D4F88031384631469847019A00285B
:102ED0003FF413AFB9F1000F03D0236823F48073DC
:102EE00023600AF1FF3ABAF1010F10D845452A468E
:102EF0000BD9D4F87C3112F8011C38463246984779
:102F00002369013B013D2361F0E70126B5E00BF1A8
:102F1000FF33062B2CD8BBF1020F1AD9ABF1030BF0
:102F20005FFA8BFBAA46CBEB050CE2450ED0D4F83A
:102F30007C311AF8011DCDF804C038463246984756
:102F40002369DDF804C0013B2361EEE7CBEB050507
:102F50000EE045452A46D8D9D4F87C3112F8011C38
:102F60003846324698472369013B013D2361F0E72B
:102F70002368DA052ED55B050ED545452A46C4D90A
:102F8000D4F87C3112F8011C384632469847236940
:102F9000013B013D2361F0E715F8011C2369652918
:102FA00003F1FF3305F1FF3A23610DD045290BD022
:102FB000D4F87C31384632469847236915F8021C0C
:102FC000013BA5F1020A2361D4F87C313846324630
:102FD00098475546266816F010064DD12E70236886
:102FE00003F4C063B3F5806F05D10399C1EB090306
:102FF0005A4263B915E0049D9DB1059D3246691C96
:1030000038460A2302F05CFA049D421B059D04F237
:103010006F139D4228BF04F5B77528461949FEF77E
:1030200015FF41460022384601F02EFC2268029D21
:1030300012F0020F804689462B6802D01A1D2A60C2
:1030400006E0029D12F0040F03F104022A6003D08F
:103050001B68C3E900890BE01D6801F0BBFB10B9D8
:1030600001F0DAFB03E04046494603F06BFA2860C2
:10307000E3680133E36000E00026304607B0BDE8B6
:10308000F08F00BF5568000870B50E46144605461F
:1030900018B183690BB9FEF7D9FC224B9C4201D1D0
:1030A0006C6808E0204B9C4201D1AC6803E01F4BE8
:1030B0009C4208BFEC68A369A360A3891A0709D5DD
:1030C00023693BB123692068C01A63699842F6B24C
:1030D0000FDB08E02846214600F03CF80028F1D03C
:1030E0004FF0FF3070BD28462146FEF71FFC002838
:1030F000F6D1A368013BA36023685A1C22601E70AE
:1031000063690130984204D0A389DB0707D50A2EF2
:1031100005D128462146FEF709FC0028E0D13046BB
:1031200070BD00BFA8670008C8670008E86700080E
:1031300038B5074C054600202060084611461A465F
:10314000FEF7B4FA431C02D1236803B12B6038BDEB
:1031500054040020324B70B51D6806460C4625B15C
:10316000AB6913B92846FEF771FC2E4B9C4201D186
:103170006C6808E02C4B9C4201D1AC6803E02B4BFF
:103180009C4208BFEC68A28993B2190720D4DD06DF
:1031900005D4092342F040023360A2813BE0580786
:1031A00012D5616B41B104F14403994202D030461B
:1031B000FEF78CFD00236363A38923F02403A3811E
:1031C0000023636023692360A38943F00803A3817C
:1031D00023694BB9A38903F42073B3F5007F03D0AF
:1031E00030462146FEF7E0FCA38913F0010205D02A
:1031F0000022A26062695242A26103E0990758BFAF
:103200006269A26022694AB903F0800080B230B1DD
:1032100043F04003A3814FF0FF3070BD002070BD2C
:10322000FC010020A8670008C8670008E8670008DC
:1032300038B5064C0023054608462360FEF71EFA03
:10324000431C02D1236803B12B6038BD5404002015
:103250002DE9F74F03690C69A3428046C0F28180D3
:10326000013C01F11407A20000F1140591460092FF
:1032700057F824602A44019255F824200136B2FB05
:10328000F6F6B944002E3AD04FF0000E3A462846E2
:10329000F34652F804CB03681FFA8CFA4FEA1C4C31
:1032A0000AFB06EA0CFB06FC0CEB1A4C1FFA8AFA26
:1032B000CAEB0B0A4FEA1C4E1FFA8CFC1AFA83FA6F
:1032C000CCEB134C0CEB2A4C1FFA8AFA4AEA0C4A54
:1032D0004A454FEA2C4B40F804ABDAD9009AAB5878
:1032E0006BB9019A131FAB421A4602D8C8F81040B6
:1032F00005E01268043B002AF8D1013CF3E74046A0
:1033000001F07DF800282ADB01362B46002057F813
:1033100004CB1A681FFA8CF1411A4FEA1C4C11FABF
:1033200082F1CCEB124202EB214289B210144F45DC
:1033300041EA024243F8042BE9D955F8242005EB71
:10334000840362B9043BAB421A4602D8C8F8104065
:1033500005E01268043B002AF8D1013CF3E730464F
:1033600000E0002003B0BDE8F08F00000000000086
:103370002DE9F04F456A9BB08246279CCDE9042396
:1033800045B91020FEF75EFCCAF824004560856050
:103390000560C560DAF82430196861B15B684B607C
:1033A000012202FA03F38B60504600F006FEDAF8C1
:1033B000243000221A600599002905DA012321F042
:1033C00000422360059201E000232360059F9C4A90
:1033D00027F000431B0D1B0593421DD12699049A2B
:1033E00042F20F730B6042B9964B974AC7F3130032
:1033F00000280CBF1046184600E09248289F002F76
:1034000000F06885C37813B100F1080300E0C31C25
:10341000289F3B6000F05EBDDDE9044500222046A8
:103420002946002303F014F8804658B1269F012353
:103430003B60289F002F00F04A858448386001389F
:1034400000F048BD19AB009318AB019350462246DB
:103450002B4601F0C4F8C7F30A5683465EB1C5F3A4
:10346000130343F07F51204641F44011A6F2FF368A
:10347000CDF854801CE0199B189E1E446FF48263A3
:103480009E4209DB04991F3306F212409B1B21FA6E
:1034900000F09F40384304E06D48049A801B02FA14
:1034A00000F002F0F7FC0127A1F1F871013E159739
:1034B0000022684B02F0B0FB5BA3D3E9002302F0CB
:1034C0005FFD5BA3D3E9002302F0A8FB044630466E
:1034D0000D4602F0EFFC58A3D3E9002302F050FDA3
:1034E00002460B462046294602F098FB04460D464C
:1034F00002F0E0FF2946814600222046002302F028
:10350000B1FF58B1484602F0D5FC02460B462046B2
:10351000294602F09DFF08B909F1FF39B9F1160FEC
:103520000DD84D4B03EBC903D3E90001DDE90423BA
:1035300002F0B6FF30B109F1FF39002700E00127A2
:10354000149700E01490189B9E1B013E099604D529
:10355000774208970027099701E000270897B9F1FB
:10356000000F07DB099FCDF844904F4409970027CF
:103570000E9708E0089FC9EB07070897C9F10007F5
:103580000E9700271197249F092F28D8052FC4BF15
:10359000043F2497249FA7F10203CCBF00250125F7
:1035A000032B21D8DFE803F0060F0204012702E015
:1035B000012709E000270F97259F002F1EDD0B979D
:1035C00007973B461FE000270F97259F4F440B9717
:1035D00001373B460797012BB8BF012313E00125B4
:1035E000002724970F9501E001270F974FF0FF3731
:1035F0000B97079700271223259704E001270B97C5
:1036000007973B462597DAF82440002262600421A0
:1036100001F114029A4221D86268013262604900C5
:10362000F6E700BFAFF3008061436F63A787D23F27
:10363000B3C8608B288AC63FFB799F501344D33FA1
:103640000000F07F646900085B69000832680008C8
:10365000EEFBFFFF0000F83F70690008504661680C
:1036600000F076FCDAF82430079F20601B680A938C
:103670000E2F00F26981002D00F066819DED047B24
:10368000B9F1000F8DED127B31DD804A09F00F0397
:1036900002EBC30393ED007B4FEA2914E0068DEDA6
:1036A0000C7B0CD57A4BDDE91201D3E9082302F03B
:1036B00091FD04F00F04CDE90401032700E0022787
:1036C000734D6CB1E10708D5DDE90C01D5E90023A4
:1036D00002F056FCCDE90C01013764100835F0E723
:1036E000DDE90401DDE90C2302F074FD1BE0C9F102
:1036F0000004DCB1654B664D04F00F0203EBC2031E
:10370000DDE91201D3E9002302F03AFC241102277B
:103710004CB1E20704D5D5E90023013702F030FCB3
:1037200064100835F4E7CDE9040100E0022714999C
:10373000E1B1DDE90445002220462946554B02F05F
:1037400091FEC0B1079ADAB10B9B002B40F3F880D1
:1037500009F1FF3110910022204629464E4B02F01C
:103760000FFC0137CDE904010B9A0CE0079BCDF863
:1037700040900C9308E00799CDF840900C9103E03D
:10378000079ACDF840900C92384602F093FBDDE9A1
:10379000042302F0F5FB0022404B02F03FFA0C9F9D
:1037A0000446A1F15075CFB900223D4BDDE904017B
:1037B00002F032FA22462B4606460F4602F070FE11
:1037C000002840F04B82224605F10043304639463E
:1037D00002F048FE002840F03782B1E00C9F2B4BEE
:1037E0007A1E0F9F03EBC203002F5DD0D3E90023A5
:1037F00000202C4902F0EEFC22462B4602F00CFA87
:10380000DDE90467DDF8288004460D463946304678
:1038100002F050FE029002F04DFB02460B4630468D
:10382000394602F0F9F9DDF808C00CF1300308F868
:10383000013B22462B4606460F4602F013FE0028A7
:1038400040F0338332463B460020124902F0E4F94F
:1038500022462B4602F006FE002840F0D4800A994A
:103860000C9AC1EB080393426ADA204629460022EB
:10387000094B02F085FB002204460D4630463946CE
:10388000054B02F07DFB06460F46BFE77069000856
:10389000386A00080000F03F0000244000001C408F
:1038A000000014400000E03FD3E9000122462B460F
:1038B00002F066FBDDF828800C9B0A9CCDE916011E
:1038C000DDE9046798443946304602F0F3FD0546C9
:1038D00002F0F0FA303502460B463046394602F027
:1038E0009BF904F8015B444506460F4621D10022AE
:1038F000874BDDE9160102F091F902460B4630468E
:10390000394602F0CDFD00287DD1DDE916230020E7
:103910007F4902F081F902460B463046394602F0F3
:10392000A1FD68B1A046013C18F8013C302BF9D04C
:10393000BBE20022774B02F023FB06460F46C2E7AC
:103940009DED127B8DED047B199B002B7CDBB9F187
:103950000E0F79DC704B259F03EBC903002FD3E9D1
:10396000004514DA079F002F11DC40F06F812046DC
:1039700029460022694B02F003FBDDE9042302F033
:1039800085FD079D2C46002840F062816AE1DDE953
:103990000467DDF8288022462B463046394602F07F
:1039A00019FC02F087FD049002F084FA22462B46AF
:1039B00002F0E6FA02460B463046394602F02CF990
:1039C000049F07F1300608F8016B0A9FC7EB080651
:1039D000079FBE4202460B4629D102F01FF922463C
:1039E0002B4606460F4602F05BFD70B9304639465D
:1039F00022462B4602F02CFD002800F05882049F3E
:103A0000FB0702D453E2DDF8409043469846013B61
:103A100018F8012C392A06D10A9F9F42F6D130228C
:103A200009F101093A701A7801321A703FE2002256
:103A3000384B02F0A5FA0022002306460F4602F09A
:103A400007FD0028A7D032E20F9F002F30D0249F1F
:103A5000012F0ADC159F17B103F2334302E0189BD4
:103A6000C3F136030E9D089E16E0079F7D1E0E9F34
:103A7000AF4201DB7D1B06E00E9F0E95EB1B119FF5
:103A80001F4411970025079F002F03DA0899002390
:103A9000CE1B01E0089E079B089F1F440897099FC3
:103AA00050461F440121099700F067FB044602E0DD
:103AB0000E9D089E0F9C6EB1099F002F0ADD3B46AC
:103AC000089FB342A8BF3346FF1A0897099FFF1A01
:103AD000F61A09970E9F002F28DD0F9F07B3002DC0
:103AE00010DD21462A46504600F0E8FB04465A46BF
:103AF0002146504600F04AFB59460746504600F022
:103B00005CFABB460E9F7A1B10D0504659460AE01D
:103B10000000E03F000024407069000800001440ED
:103B20000E9A5046594600F0C9FB83465046012183
:103B300000F023FB119F002F054605DD2946504666
:103B40003A4600F0BBFB0546249F012F12DC049986
:103B500081B9059AC2F3130373B922F000473F0DF0
:103B60003F0557B1089F01370897099F013709970B
:103B7000012702E0002700E0049F119941B12B6961
:103B800005EB8303186900F0ABFAC0F1200000E0F8
:103B90000120099B034413F01F0308D0C3F1200246
:103BA000042A02DDC3F11C0302E008D013461C33D3
:103BB000089A09991A44194408921E440991089ACE
:103BC000002A04DD5946504600F0C6FB8346099B97
:103BD000002B05DD294650461A4600F0BDFB054680
:103BE0001499E1B15846294600F009FC002816DA7C
:103BF00059460A225046002300F0F6F90F9A09F1BF
:103C0000FF3983464AB12146002350460A2200F07C
:103C1000EBF90B9B0793044601E00B990791079A78
:103C2000002A29DC249B022B26DD8AB9294605229D
:103C3000079B504600F0D8F905462946584600F043
:103C4000DEFB00280EDC03E00C9D00E000252C4686
:103C5000259FDDF828806FEA07090AE00C9DDDF852
:103C600040902C460A9F312307F101083B7009F16F
:103C700001092746002407E10F99002900F0BB80C5
:103C8000002E05DD21465046324600F065FB044615
:103C90009FB16168504600F05BF922690232064626
:103CA00004F10C0192000C30FDF7E3FF5046314661
:103CB000012200F051FB074600E027460A9E2946F4
:103CC0005846FFF7C5FA214600F1300C80465846A9
:103CD000CDF808C000F093FB3A46089029465046BC
:103CE00000F0AAFBC368DDF808C002464BB91146D4
:103CF0005846039200F083FB039ADDF808C00346A0
:103D000000E00123504611460393CDF808C000F0AF
:103D100054F9039BDDF808C063B9249A52B9049999
:103D200001F0010232B9BCF1390F35D0089B002BEC
:103D300024DC25E00899002902DA002B08DC1FE0CA
:103D400023D1249A0ABB049901F00102EAB9F4E7ED
:103D5000594601225046CDF808C000F0FDFA294628
:103D6000834600F04CFB0028DDF808C003DC07D1D7
:103D70001CF0010F04D0BCF1390F0DD008F1310C4B
:103D800006F1010886F800C07EE0002B06F101086C
:103D900009DDBCF1390F03D13923337001365BE003
:103DA0000CF1010368E00A9A07994646C2EB080342
:103DB0008B4206F801CC3CD059460A2200235046DB
:103DC00000F012F9BC428346214650464FF00A02E9
:103DD0004FF0000304D100F007F9044607466EE7F0
:103DE00000F002F9394604460A225046002300F04A
:103DF000FBF8074663E70F9E58462946FFF728FA67
:103E00000A9F00F1300C07F806C0079F0136BE423A
:103E100007DB0A9E012FACBFF619013627460024A6
:103E200007E0594650460A22002300F0DDF8834699
:103E3000E2E7594601225046CDF808C000F08CFA5E
:103E40002946834600F0DBFA0028DDF808C003DCD1
:103E500014D11CF0010F11D016F8013C392BB046DB
:103E600006F1FF3607D10A99B142F5D1312309F1A4
:103E700001090B7008E00133337005E0B046013EE4
:103E800018F8013C302BF9D05046294600F095F83F
:103E90006FB12CB1BC4203D05046214600F08DF8E2
:103EA0005046394600F089F801E0DDF84090504670
:103EB000594600F082F80023269F88F8003009F167
:103EC00001033B60289F27B1C7F8008001E0034849
:103ED00000E00A981BB0BDE8F08F00BF3168000811
:103EE00038B5074C00230546084611462360FDF708
:103EF0004FFC431C02D1236803B12B6038BD00BFC7
:103F00005404002038B5064C0023054608462360BB
:103F1000FDF716FC431C02D1236803B12B6038BDAA
:103F200054040020004870470402002038B5074CB4
:103F3000054600202060084611461A46FDF714FC8D
:103F4000431C02D1236803B12B6038BD5404002008
:103F500070B5456A04460E463DB91020FDF772FE65
:103F60006062456085600560C560656AEB6843B165
:103F7000636ADA6852F8260078B1016842F82610C0
:103F800017E020460421212200F0DDFB636AE8608F
:103F9000DB68002BECD1002070BD012101FA06F591
:103FA0006A1D2046920000F0CEFB0028F3D0466048
:103FB000856000220261C26070BD70B5446A064629
:103FC0000D463CB91020FDF73DFE706244608460F0
:103FD0000460C4603DB1736A6A68DB6853F82210FC
:103FE000296043F8225070BD2DE9F0410C461E4671
:103FF0000D6907461431002308681FFA80FC000C85
:1040000002FB0C6C504300EB1C4001331FFA8CFC8C
:10401000060CAB420CEB004041F8040BECDBD6B1D4
:10402000A3689D4212DB616838460131FFF790FFBB
:104030002269023204F10C01804692000C30FDF737
:1040400018FE21463846FFF7B8FF444604EB8503C7
:1040500001355E6125612046BDE8F0812DE9F84318
:104060001446984603F1080209230D4692FBF3F229
:104070000646012300219A4202DD5B000131FAE786
:104080003046FFF765FF089B4361092C4FF00103A1
:104090000146036111DD05F109094F46254417F872
:1040A000013B30460A22303BFFF79EFFAF420146FC
:1040B000F5D109EB0407083F02E005F10A070924DE
:1040C0002546454509DA3B1B30465B5D0A22303BFD
:1040D000FFF78AFF01350146F3E70846BDE8F8839C
:1040E000030C1B0413B90004102300E0002310F09C
:1040F0007F4F04BF0002083310F0704F04BF00016F
:10410000043310F0404F04BF80000233002803DB6B
:10411000420003D5581C704718467047202070474E
:10412000036813F007020BD0D90722D49A0703D5EE
:104130005B080360012070479B0803600220704702
:1041400099B209B91B0C102213F0FF0F04BF1B0A10
:104150000832190704BF1B090432990704BF9B08E2
:104160000232D90702D45B0805D001320360104641
:104170007047002070472020704710B50C46012181
:10418000FFF7E6FE01224461026110BD2DE9F04F08
:1041900016460A6933699A4285B00D4601DA3546FA
:1041A0000E46D5F810803769AB68696808EB0704DC
:1041B0009C42C8BF0131FFF7CBFE00F1140303EBB3
:1041C000840101911A46DDF804A0524503D2002172
:1041D00042F8041BF7E705F1140106F1140201EBA4
:1041E000880802EB8707CDF808800397039EB24248
:1041F000154656D2B5F800C00432BCF1000F25D0E8
:104200000F461D46002657F8049BD5F800801FFA7C
:1042100089FB1FFA88FA0CFB0BAA4FEA19494FEAEF
:104220001848B2440CFB098808EB1A481FFA8AFAAE
:104230004AEA084A4FEA1846DDF80880AB46B84516
:104240004BF804AB01D95D46DDE76E6032F8028CB5
:10425000B8F1000F23D01E680F461D464FF000092D
:10426000B7F800A0B5F802C008FB0ACCE144B6B22A
:10427000AC4646EA09464CF8046B57F8046BB5F8AF
:1042800004A0360C08FB06A6DDF808A006EB1946CC
:1042900057454FEA164901D26546E1E76E6004339F
:1042A000A4E7019B002C03DC046105B0BDE8F08F9E
:1042B00053F8042D002AF7D1013CF3E712F0030371
:1042C0002DE9F04105460E46174607D0013B214A2D
:1042D00052F823200023FFF787FE0646BF1035D093
:1042E0006C6A3CB91020FDF7ADFC686244608460E4
:1042F0000460C460D5F82480D8F808407CB928460A
:1043000040F27121FFF739FF0023C8F80800044686
:10431000036004E07F1019D0206870B10446FB07E9
:10432000F8D5314622462846FFF730FF3146804611
:104330002846FFF742FE4646ECE72846214622463D
:10434000FFF724FF002320600360E7E73046BDE865
:10435000F08100BF606A00082DE9F0470C464FEA83
:10436000621A236949680AEB0309A3688046154667
:1043700009F101079F4202DD01315B00FAE7404687
:10438000FFF7E6FD0023064600F11402534504DA68
:10439000002142F823100133F8E720692AEAEA7184
:1043A00004F1140315F01F0C02EB810103EB800EE6
:1043B00016D0CCF1200A002518680A4600FA0CF045
:1043C000054342F8045B53F8045B734525FA0AF58C
:1043D00001D21146F0E74D6045B109F1020705E051
:1043E00053F8042B41F8042B7345F9D3013F4046A1
:1043F00037612146FFF7E1FD3046BDE8F0870269ED
:104400000B69D21A10B513D19C00143001F11402BB
:104410000319224453F8044D52F8041D8C4203D072
:1044200008D24FF0FF3010BD9842F3D3002010BDEA
:10443000104610BD012010BD2DE9F04706460C4680
:10444000084611461546FFF7DAFF071E08D1304629
:104450003946FFF77DFD012303614761BDE8F08721
:1044600001DB002703E0234601272C461D46616837
:104470003046FFF76DFD22692B69C760143405F1E2
:10448000140606EB830A04EB820C00F114030021EE
:1044900054F8047B56F8049B11FA87F11FFA89F54A
:1044A0004FEA1949C5EB0108C9EB174707EB284745
:1044B0001FFA88F83914B24548EA0747254643F8F9
:1044C000047BE5D865450DD255F8044B11FA84F606
:1044D000240C04EB2644B6B2211446EA044443F803
:1044E000044BEFE753F8041D09B9013AFAE70261FA
:1044F000BDE8F0870F4B0B40A3F15073002B01DD9B
:10450000194609E05B421B15132B4FF0000105DC37
:104510004FF4002242FA03F100207047322B4FF093
:104520000102DABFC3F1330302FA03F3134618465C
:10453000704700BF0000F07F2DE9F041066900F1EF
:10454000140707EB8606884656F8044C2046FFF70A
:10455000C7FDC0F120030A28A6F10405C8F8003001
:1045600014DCBD42C0F10B0188BF56F8085C24FA88
:1045700001FC98BF002515304CF07F5325FA01F15E
:10458000844043F4401341EA040224E0BD4286BF64
:10459000A6F1080556F8081C0021B0F10B0615D04D
:1045A000B440C0F12B0044F07F5444F4401421FA8D
:1045B00000FCBD4244EA0C038CBF55F8044C0024B7
:1045C00024FA00F0B14040EA010204E044F07F53D5
:1045D00043F440130A4610461946BDE8F0812DE920
:1045E000F74301211D46DDF82890DDF82C801446A4
:1045F000FFF7AEFCC5F30A570646C5F313030FB128
:1046000043F480130193D4B102A840F8084D6846E2
:10461000FFF786FD009B48B1019AC0F1200102FA24
:1046200001F10B43C2407361019200E07361019B91
:10463000B361002B0CBF01240224346107E001A800
:10464000FFF76EFD0124019B7361346120303FB19F
:10465000A7F233470744C9F80070C0F135000AE0FB
:1046600006EB8403A0F23240C9F800001869FFF796
:1046700037FDC0EB4410C8F80000304603B0BDE879
:10468000F0832DE9F3410E4669468046FFF754FF5B
:104690000D46044601A93046FFF74EFF009F0B462A
:1046A000019902467F1AD8F810003169411A07EBC8
:1046B00041110029CCBF05EB0155A3EB0153204666
:1046C000294601F087FD02B0BDE8F08110B501393F
:1046D00002F1140349111269013100EB810103EB6E
:1046E0008202934204D253F8044B40F8044BF8E79B
:1046F000884203D2002340F8043BF9E710BD00F1E3
:10470000140200694B11834210B50CDC0CDA11F075
:104710001F0109D052F8230020FA01F404FA01F134
:1047200081420ED100E0034602EB83039342194617
:1047300005D951F8041C043B0029F7D001E0002002
:1047400010BD012010BD38B502FB01F42146FDF774
:1047500001FB054618B100212246FDF7AEFA2846B6
:1047600038BDF8B5064614460D4621B91146BDE8D8
:10477000F840FDF7EFBA1AB9FDF7A8FA2046F8BDE0
:1047800001F03CFAA0420ED230462146FDF7E2FA93
:10479000074650B129462246FDF76BFA30462946B6
:1047A000FDF794FA01E02846F8BD3846F8BD000050
:1047B00038B5074C054600202060084611461A46C9
:1047C000FCF79CFF431C02D1236803B12B6038BD6A
:1047D0005404002031F0004310B500D178B10C4AE8
:1047E000A3F5801494420CD9B3F5801F0BD3094A6A
:1047F00093420AD1D0F1010038BF002010BD022041
:1048000010BD042010BD032010BD002010BD00BF4E
:10481000FFFFDF7F0000F07F004870470000C07F8F
:1048200030B5026811F8015B541C55B1537822462B
:10483000A3F14104192C98BF2033AB42F2D00020E1
:1048400030BD0460012030BD2DE9F0410D46904699
:10485000FFF750FE06460F46B8F1000F0FD0C5F324
:104860000A53C3F16B03002B09DD1C0504F17F53D0
:1048700003F54013002201F083FBBDE8F0813046D0
:104880003946BDE8F08100002DE9F04F9FB00023CC
:104890008146049115921A934FF0000A4FF0000BD5
:1048A0001991199A13780D2B05D8092B14D2002BC6
:1048B00000F0B18113E02B2B07D02D2B02D0202B41
:1048C0000DD109E00126099601E000270997531C44
:1048D000199353782BB99EE101321992E1E7002632
:1048E0000996199C2378302B5AD16378582B01D024
:1048F000782B49D11AAB099F00930197484619A913
:104900009C4A1BAB00F0A8FE10F00706054600F01D
:10491000AD85062E02D1013419947EE11A9A3AB17E
:104920001CA83521FFF7D2FE48461A99FFF745FB30
:104930001B9A062E21D8DFE806F0040D08171C0D7F
:1049400004004FF0000BDA4617E0DDF870A0DDF848
:1049500074B012E01D9BDDF870A002F2334223F424
:10496000801343EA025B08E0DFF80CB24FF0000A64
:1049700003E06FF0004B4FF0FF3A2B0740F17685D4
:104980004BF0004B00F072BD199B5A1C19925B78DA
:10499000302BF9D0002B00F069850123059301E04D
:1049A000002605964FF00008199F0797CDF80C8058
:1049B0004446199E3578A5F13003DAB2092A10D899
:1049C000082CD8BF039F4FF00A02D8BF02FB07375D
:1049D00006F10106D4BF039702FB0838013419968B
:1049E000E7E74846FFF79EFA07684846FFF79AFA56
:1049F0000068FDF792FA394602463046FDF795FA0F
:104A0000064628B100232A46194625460A935FE048
:104A10004846199DFFF786FA0068FDF77EFA2B18C5
:104A200019932A5C002C45D12346302A05D1199AC6
:104A3000511C199101335278F7E7A2F1310108298D
:104A400042D8199E0796194600231D46303A03F1B5
:104A5000010029D001446E1C771B874210DA771EB3
:104A6000082F06DC039F4FF00A0C0CFB07F7039797
:104A700004E0102EDCBF0A2707FB08F80136EBE73D
:104A8000002BACBFEB182B1C082B03F1010505DC38
:104A9000039E0A2303FB0626039604E0102DDCBFC9
:104AA0000A2303FB08280020199B5A1C19925A78E4
:104AB000034602E0254633463146A2F1300009287C
:104AC000C4D901270A9703E00025012029460A904E
:104AD00022F02006452E53D125B91BB9059E002E84
:104AE00000F09980199F04977A1C19927A782B2AE2
:104AF00004D02D2A05D000260F9608E000200F9044
:104B000001E001270F97049EB21C1992B278A2F11E
:104B10003007092F32D8302A04D1199A571C199717
:104B20005278F8E7A2F13107082F29D81998069092
:104B3000A2F13007199A561C199652780E96A2F1D6
:104B40003006092E05D84FF00A0C0CFB0727303F22
:104B5000F0E70E98069EC6EB000CBCF1080F44F679
:104B60001F6C02DC6745B8BFBC460F9F57B1CCF144
:104B7000000C07E06C6A00080000F07F049E1996A4
:104B80004FF0000C002D4CD1002B40F06F84059F9E
:104B9000002F40F06B840A9800283CD14E2A1BD08D
:104BA00002DC492A05D036E0692A02D06E2A13D0E9
:104BB00031E019A8AC49FFF733FE60B3199BAB494C
:104BC000013B19A81993FFF72BFE10B9199B01336C
:104BD0001993DFF8B4B21AE019A8A549FFF720FE2F
:104BE000C8B1199B1B78282B0FD119A8A1491CAA61
:104BF00000F074FF052808D11D9BDDF870A043F07C
:104C0000FF4B4BF4E00B00F031BCDFF880B24FF00B
:104C1000000A00F02BBC049B19930026099600F0B3
:104C200025BCC1EB0C0103980691102DB4BFAC4616
:104C30004FF0100CCDF808C001F02CF9DDF808C0D9
:104C4000002C08BF2C46BCF1090F82468B4615DDAF
:104C5000894B03EBCC0353E9122301F091F906468B
:104C600040460F4601F016F902460B4630463946DB
:104C700000F0D4FFDDF808C082468B460F2D37DCEC
:104C8000069F002F00F0F28323DD162F07DC7A4900
:104C900001EBC701D1E9000152465B4614E0069ED4
:104CA000C5F125039E4223DC734CC5F10F0504EBCF
:104CB000C503751BD3E9000152465B4604EBC504EE
:104CC00001F05EF9D4E9002301F05AF982468B46DF
:104CD000CCE3069F16370BDBDDF818C0664FA7EB59
:104CE000CC0750465946D7E9002301F073FAEDE7A7
:104CF000069ECCEB0508B044B8F1000F61DD18F05A
:104D00000F030AD05C4A02EBC303D3E90001524609
:104D10005B4601F035F982468B4638F00F0800F00B
:104D2000C880B8F59A7F13DD4FF00008CDF80C80ED
:104D3000CDF81C80CDF81480079FDFF84CB12223FA
:104D4000C9F800304FF0000A002F40F07B838DE35C
:104D50004FEA2818504659460026B8F1010F0DDDDC
:104D600018F0010F06D0454B03EBC603D3E900232F
:104D700001F006F901364FEA6808EEE73F4B82463C
:104D8000A1F1547B03EBC60652465B46D6E900010F
:104D900001F0F6F821F000438B461B0D38491B0546
:104DA0008B428246C0D8A1F580118B4206D90026DD
:104DB000DFF8DCB004964FF0FF3A7CE00BF1547B57
:104DC00077E076D0C8F1000818F00F030AD02A4A1D
:104DD00002EBC30350465946D3E9002301F0FAF928
:104DE00082468B465FEA281863D0B8F11F0F08DDB2
:104DF0004FF00008CDF80C80CDF81C80CDF8148061
:104E00001EE118F0100F14BF6A26002604961D4EEE
:104E100050465946B8F1000F0ADD18F0010F03D0D3
:104E2000D6E9002301F0ACF84FEA68080836F1E74C
:104E3000049F82468B469FB3C1F30A53C3F16B03B1
:104E4000002B2DDD1F2B25DD342B4FF0000A02DD5A
:104E50004FF05C7B24E0203B4FF0FF3101FA03F37D
:104E600003EA0B0B1CE000BF266800085E6900081F
:104E70002E680008A86A000870690008386A0008EF
:104E80000000A07C806A00080000F07F0000F8FFAE
:104E9000FFFFEF7F4FF0FF3202FA03F303EA000A4D
:104EA000504659460022002301F0D2FA00289FD133
:104EB00001E000270497039E009648460799224682
:104EC0002B46FFF7CBF8079000283FF42DAF069F45
:104ED0007B42002FA8BF00234FF000080E93CDF8AF
:104EE0000C80079E48467168FFF732F8059000284D
:104EF0003FF422AF3269023206F10C0192000C300D
:104F0000FCF7B7FE1BAB00931CAB0193484652461F
:104F10005B46CDE90AABFFF762FB1A9000283FF42D
:104F20000BAF48460121FFF728F9039000283FF412
:104F300003AF1B9BDDF818C0002B2CEAEC77C0F206
:104F40008B800E9C3A461C44049E1C9D9B1B591949
:104F50006FF47F739942C5F1360580F287805B1A42
:104F60001F2BC3EB05054FF0010078DC98400023B0
:104F700014900F93049866191544A642B4BF3346A3
:104F800023460544AB42A8BF2B46002B02DDF61A90
:104F9000ED1AE41A0E9900296FD1002E00F38780D4
:104FA000002F40F08E80002D00F39580002C00F340
:104FB0009C8048461A99059AFFF73EFA80460028D9
:104FC0003FF4BAAE0023C6680399C3600896FFF7A2
:104FD00016FA002880F29880002E40F02082BAF164
:104FE000000F40F01C82CBF31303002B40F017821C
:104FF0002BF000431B0D1B05B3F1D66F40F20F825F
:10500000D8F81430002B7AD0414601224846FFF7E9
:10501000A3F903998046FFF7F2F9002840F3FF81D6
:105020002BF00043049F1B0D1B05002F00F09C80FC
:10503000B3F1D66F00F29880B3F15C7F00F2F1819A
:10504000079E22234FF0000A4FF0000BC9F80030F2
:10505000002E40F0F78109E2FA1A0E9C74E7844EA4
:105060001490761A00FA06F60F9683E700264FF0A2
:10507000010C0F96CDF850C07CE7484603990E9A74
:10508000FFF71CF9039000283FF456AE48460399F9
:105090001A9AFFF77BF8034600283FF44DAE4846C6
:1050A0001A990293FEF789FF029B1A9375E7484607
:1050B0001A993246FFF750F91A9000287FF470AF22
:1050C0003AE6484605993A46FFF7F8F80590002871
:1050D0007FF469AF30E6484605992A46FFF73CF968
:1050E000059000287FF462AF26E6484603992246E1
:1050F000FFF732F9039000287FF45BAF1CE6D8F885
:105100001030012B80DC8AE163D1089FCBF31303BD
:105110002FB358498B425A462FD1049E51466EB147
:10512000554B0BEA0303B3F1D46F07D81B0DC3F142
:105130006B034FF0FF3000FA03F301E04FF0FF3351
:1051400099421AD14D4B9A4202D101313FF4F4AD4C
:10515000494B134003F5801B4FF0000A5FE163B930
:10516000BAF1000F09D15BE7A3F580136FEA135B77
:105170006FEA0B5B4FF0FF3A51E10F9B13B113EA5B
:105180000B0F02E0149E16EA0A0F00F04881089FF8
:10519000049A5046594657B1FFF756FB02460B4654
:1051A000DDE90A0100F03AFD82468B4637E1FFF760
:1051B0004BFB02460B46DDE90A0100F02DFD002203
:1051C000002382468B4601F043F900287FF438AF74
:1051D00025E140460399FFF754FA00224FF080433F
:1051E00004460D4601F048F9002832D0089E26B149
:1051F000234F002634463D464CE0BAF1000F03D160
:10520000CBF313033BB90BE0BAF1010F03D1BBF1B0
:10521000000F3FF415AF00261A4F194D002439E056
:10522000204629460022164B01F01CF940B92046C1
:1052300029460022144B00F0A3FE04460D4601E06F
:10524000114D002405F1004716941797DDE9166704
:1052500020E02046294600220B4B00F091FE089EDC
:1052600004460D4696B901F10047109011970FE0E2
:10527000E3FBFFFFFFFF0F000000F07FFFFFEF7F6A
:105280000000F03F0000F0BF0000E03FCDE9104516
:10529000DDE910672BF0004C4FEA1C5C844B4FEAB1
:1052A0000C5C9C4531D19DED0A7BABF1547B5046A3
:1052B0005946CDF808C08DED0C7BFFF71BF902466F
:1052C0000B463046394600F05BFE02460B46504620
:1052D000594600F0A3FC21F000431B0D754ADDF890
:1052E00008C01B05934282460CD9734B0D98984217
:1052F00003D10C9901313FF41FADDFF8BCB14FF081
:10530000FF3A7BE001F1547B42E0049A52B3BCF1D6
:10531000D46F27D8204629465DA3D3E90023CDF8D2
:1053200008C001F0A9F8DDF808C0B8B12946204648
:1053300001F0E8F8002808BF012000F0ABFD089E4E
:10534000DDF808C004460D4626B901F10047129069
:10535000139701E0CDE91245DDE9126707F1D66345
:10536000CCEB0307DDE90A01CDF808C0FFF7C2F86E
:1053700002460B463046394600F002FE02460B4616
:10538000DDE90A0100F04AFCDDF808C082468B46E0
:10539000049F002F32D12BF000431B0D1B059C45B1
:1053A0002CD12946204601F085F800F083FD024605
:1053B0000B462046294600F02FFC089F04460D4668
:1053C0002FB9BAF1000F02D1CBF3130686B12046F4
:1053D000294631A3D3E9002301F044F8002831D154
:1053E000204629462EA3D3E9002301F059F804E012
:1053F0002DA3D3E9002301F035F818BB48461A99CC
:10540000FEF7DBFD48460599FEF7D7FD48460399B0
:10541000FEF7D3FD48464146FEF7CFFD61E5049E09
:1054200086B10020254F0C900D9750465946DDE976
:105430000C2300F0A5FD82468B4619B910B9222332
:10544000C9F8003048461A99FEF7B7FD4846059955
:10545000FEF7B3FD48460399FEF7AFFD48460799AE
:10546000FEF7ABFD48464146FEF7A7FD159E0EB17F
:10547000199B3360099F1FB150460BF1004101E0B9
:10548000504659461FB0BDE8F08F00BFAFF3008013
:105490000000C0FFFFFFDF419535A094FFFFDF3F15
:1054A00035E5AF350000E03F9535A094FFFFCF3FD5
:1054B0000000E07FFFFF9F7CFFFFEF7F000050397F
:1054C00084463F482DE9F04FD0F800800E46344620
:1054D00014F8015B08EB0500407800F0080000F0CC
:1054E000FF0708B12646F2E72D2D03D1B41C7578CD
:1054F000012703E02B2D04BF7578B41C33F0100096
:105500000DD1302D08D1207800F0DF00582851D17E
:1055100065781023023402E0002B08BF0A23002F15
:105520000CBF6FF0004A4FF0004ABAFBF3F90026B7
:1055300003FB19AA304608EB050B9BF801B01BF0E2
:10554000040F01D0303D0BE01BF0030B1BD0BBF16F
:10555000010F14BF4FF0570B4FF0370BCBEB050586
:105560009D4210DAB6F1FF3F0AD0484506D801D176
:10557000554503DC03FB0050012601E04FF0FF36E8
:1055800014F8015BD7E7731C0CD1002F4FF02203F6
:105590000CBF6FF000404FF00040CCF800302AB94B
:1055A000BDE8F08F07B1404242B106B1611E116003
:1055B000BDE8F08F002B08BF0823B0E7BDE8F08FEF
:1055C00000020020F0B506694B11B34200F114024D
:1055D00026DA11F01F0102EB860602EB830401D1EB
:1055E000134616E052F82350C1F1200C0434CD408C
:1055F0001346B44209D2276807FA0CF73D4343F833
:10560000045B54F8045BCD40F3E71D604DB10433F7
:1056100007E0B44205D254F8041B43F8041BF8E732
:1056200013469B1A9B10036103B94361F0BDA0F1BF
:105630003003092B01D820380AE0A0F16103052BC3
:1056400001D8473804E0A0F14103052B02D82738E0
:10565000C0B27047002070472DE9F04F89B09046E6
:10566000059106930390FEF75DFC00680490FCF73B
:1056700054FC049B0599029003444FF0000B13F86F
:10568000013C07930B6802331F4613F8010B3028C7
:1056900002D10BF1010BF7E7FFF7C9FF0646F8B996
:1056A00038460499029AFCF740FC002839D1029B45
:1056B000029DF85C3D44FFF7BAFF002833D02B462B
:1056C000187830281F4603F10103F9D0FFF7AFFF28
:1056D000D0F1010438BF00242E464FF0010B01E049
:1056E00000242646B9464D4609F101092878FFF7FE
:1056F0009EFF0028F7D128460499029AFCF715FC72
:1057000058B95EB9029E2E44B1464D4609F10109D1
:105710002878FFF78CFF0028F7D136B1761BB6004A
:1057200003E03D4600E0064601242B78502B01D0D3
:10573000702B34D16B782B2B05D02D2B05D005F198
:105740000109002104E0002100E0012105F1020926
:1057500099F800000191FFF76AFF431EDBB2182B96
:1057600001991CD8A0F1100A09F1010399460133EF
:1057700099F8000001910093FFF759FF421ED2B241
:10578000182A0199009B05D80A2202FB0A0AAAF1ED
:10579000100AEBE709B1CAF1000A564400E0A94635
:1057A0000599C1F800902CB1BBF1000F0CBF062089
:1057B00000207DE1EB1B013B2146072B02DD01317F
:1057C0005B10FAE70398FEF7C3FB4FF0000900F106
:1057D000140A04465346CB46BD4233D96A1E05928D
:1057E000079915F8012C8A4209D0BBF1200F17D177
:1057F000C3F800904FF000090433CB4610E0029A42
:105800000599C2F1010C8C44BC45EED36046049965
:105810008DE80810FCF789FB9DE8081080B1E4E7EB
:1058200015F8010C0093FFF702FF00F00F0000FADB
:105830000BF0DDF814C0009B49EA00090BF1040BE2
:105840006546C9E743F8049BCAEB03039B10236139
:1058500048465F01FEF744FCD8F80050381AA842C9
:1058600026DD471B39462046FEF749FFC8B17B1E9F
:105870005A1103F01F014FF001095AF8222009FACA
:1058800001F111420ED04B4502DC4FF0020909E054
:105890002046B91EFEF733FF0028F6D04FF003096B
:1058A00000E0814620463946FFF78CFE3E440CE07E
:1058B00009DA2F1A214603983A46FEF74DFDF61BEA
:1058C000044600F1140A4FF00009D8F808309E424F
:1058D00008DD03982146FEF770FB129A002313603F
:1058E000A320E5E0D8F804309E4254DA9E1BAE4275
:1058F0002EDBD8F80C30022B1AD0032B1CD0012B36
:105900001DD1AE421BD1012D0BDC0699D8F8043015
:105910000B6001232361CAF80030129B62201C60D7
:10592000C6E02046691EFEF7EAFE0028EDD106E03B
:10593000139B002BE9D002E0139B002BE5D10398C9
:105940002146FEF73AFB129900230B605020AFE08E
:10595000771EB9F1000F07D1002F07DD2046394629
:10596000FEF7CDFE814601E04FF001097B110122D7
:105970005AF8233007F01F0702FA07F71F42314693
:10598000204618BF49F00209AD1BFFF71BFE022796
:10599000D8F8046000E00127B9F1000F00F083801F
:1059A000D8F80C30022B0ED0032B10D0012B78D15D
:1059B00019F0020F75D0DAF8003049EA030919F03E
:1059C000010F07D16DE0139BC3F101031393139BE8
:1059D000002B66D0D4F8109004F114034FEA890A22
:1059E00003EB0A01184653F8042BB2F1FF3F02D033
:1059F0000132026021E000228B4243F8042CF1D3F3
:105A0000A368994512DB616803980131FEF7A0FA9B
:105A10002269023204F10C01834692000C30FCF73B
:105A200028F921460398FEF7C8FA5C4623695A1CF8
:105A300004EB8303226101225A61022F04F1140353
:105A400011D1D8F80020013A954227D16A110121DD
:105A500005F01F0553F8223001FA05F51D420CBF71
:105A600002270F461AE022694A450ADD2046012135
:105A7000FFF7A8FDD8F8083001369E423FF729AF5E
:105A80000BE015F01F0508D05344C5F1200553F86D
:105A9000040CFEF725FBA842E8DB012747F02007AE
:105AA00001E047F01007129B1C60069B38461E6001
:105AB00009B0BDE8F08FC2F10802920070B5C2F1E2
:105AC0002004056850F8043F03FA04F63543D34038
:105AD000884240F8045C0360F3D370BD2DE9F04FB9
